:020000040000FA
:06000000020A000201B03B
:03002B000209BF08
:030033000206388A
:030043000208822E
:03004B00020702A7
:03005300020103A4
:03005B0002071188
:0300630002071D74
:03006B0002061E6C
:1000830002014C0101FF0503010F030003000300FC
:1000930003000300030003000300030005000A003C
:1000A300140028004F009E0000001D101D101D109D
:1000B3001D10DF0ED90E1D10EA1B000000004C1CA2
:1000C300000000000C0000000C0001B905FF030054
:1000D30001010100D50E0000004A0FE8036400642B
:1000E30000B8010202000800000502071E02051EF7
:1000F30003B80B020103320002F1FF0202020605FC
:10010300C0E074F21203C2E5A7F8E5A1F958541050
:1001130060081216A153A1EF802AE8A2E0C0D0E93B
:10012300A2E092F012099B158182F050179061981A
:10013300E0F890125DE0C398A2D265D0335002E894
:10014300F053A1FE7F01020421C0E074F21203C246
:100153009061A4E0F8759B00E59158540860087518
:1001630091F71216E3802AE59158541060087591AF
:10017300EF1216E9801BE8A2E0C0D0E591A2E0925D
:10018300F012099B158182F05007E0C2E0F01218CB
:10019300099061A3E0F8E5E9585404600E1217DFF3
:1001A30075E9FB906193E0A2E640F28097C0E074AA
:1001B300F21203C29061A5E0F8E5BF58540460064B
:1001C30053BFFB121821020147C3E498F8E499F9DD
:1001D30012020D8026C3E49AFAE49BFBE920E7E9C7
:1001E30012020DE498F8E499F922C3E498F8E4992B
:1001F300F912020DE498F8E499F9C3E49AFAE49B3E
:10020300FB22EB20E7CFE920E7E0B90010BB0008B1
:10021300E88AF084F8AAF022E4FBC8FA22EB702201
:100223007B10C833C8C933C9335007C39AC3DBF241
:1002330080069A50012ADBEAC833F4C8C933F4C9EB
:10024300FA2275F008E4C833C8C933C933C99AC957
:100253009B5004C92AC93BD5F0ECFBC833F4C8E46E
:10026300C9FA22080808EAC0E0EBC0E086F0E7A478
:10027300FA180986F0E7A42AFA180986F0E7A42AEF
:10028300FA180986F0E7A42AFA1986F0E7A4FBE531
:10029300F02AFA190886F0E7A42BFBE5F03AFA19DD
:1002A3000886F0E7A42BFBE5F03AFA18180986F064
:1002B300E7A4C5F02BFBE43AFA1908E7C5F0C6A496
:1002C30026F6E5F03BFBE43AFA1886F0E7A4F6E5F8
:1002D300F00826F6E43B08F6E43A08F6D0E0FBD053
:1002E300E0FA22E4CFC0E0E4CEC0E0E4CDC0E0E435
:1002F300CCC0E075F020C3E633F608E633F608E633
:1003030033F608E633F6181818EC33FCED33FDEE3C
:1003130033FEEF33FFC3EC9709ED9709EE9709EF2F
:1003230097191919400FFFEC97FC09ED97FD09EE9A
:1003330097FE191906D5F0BEECF709EDF709EEF7AC
:1003430009EFF7191919D0E0FCD0E0FDD0E0FED099
:10035300E0FF222510C582C0E0E51134FFC583C04C
:10036300E0E510C3958224F810AF088583118582D8
:10037300108008858311858210D2AFCEF0A3E520CB
:10038300F0A37808E608F0A3DEFAEFF0A3E58124F2
:10039300FAF8E608F0A3E608F0A3E608F0A30808D5
:1003A300E608F0A3E608F0A315811581D0E0FED09E
:1003B300E0F8158115811581E8C0E0EEC0E022C0A8
:1003C300D02510C582C0E0E51134FFC583C0E0E548
:1003D30010C3958224F310AF0885831185821080A2
:1003E30008858311858210D2AFC8F0A3E9F0A3EA90
:1003F300F0A3EBF0A37908E709F0A3D8FAECF0A394
:10040300EDF0A3EEF0A3EFF0A3D0E0F0A3D0E0F083
:10041300A3D0E0F0A3E520F0A3E5F0F0A32285113B
:1004230083851082E0C0E0A3E0F9A3E0FAA3E0FB38
:10043300A37808E0F608A3DFFAE0FCA3E0FDA3E05D
:10044300FEA3E0FFA3E0C0E0A3E0C0E0A3E0F5D09B
:10045300A3E0F520A3E0A3F5F010AF088583118591
:1004630082108008858311858210D2AFD082D08319
:10047300D0E0F8D0E032120A62B900030204BBE410
:1004830090040078B379118002F0A3D8FCD9FA90D4
:1004930014B2AA82AB83900086787E79018015E43A
:1004A30093A3AC82AD838A828B83F0A3AA82AB83AE
:1004B3008C828D83D8E9D9E775821B7583DE74023C
:1004C3001207C975829775831A74001207C9D083FE
:1004D300D082ECC0E0EDC0E0E493A3FCE493A3FD81
:1004E300ED4C600D1205A9EC24FFFCED34FFFD80FB
:1004F300EFE493A3FCE493A3FDED4C600D1206AD72
:10050300EC24FFFCED34FFFD80EFD0E0FDD0E0FCF8
:10051300E493A3C0E0E493C0E022D083D082E9C097
:10052300E0E493A3C386F0C5F095F0F908E493A340
:1005330086F0C5F095F0700BE493A3C3994005E9E9
:10054300048002A3E475F002A42582F582E5F03568
:1005530083F583D0E0F9E493A3C0E0E493C0E02201
:10056300851183851082E0A3FEE0A3F5207808E0DF
:10057300A3F608DFFAE0A3FFE0A3C0E0E0A3C0E036
:10058300E0A3C0E0E0A3C0E0E0A3C0E010AF0885B3
:1005930082108583118008858210858311D2AFD0A4
:1005A30083D0820207CFC0E0C3E49396087401931B
:1005B3009618400FE49366700808740193661870E8
:1005C300007019A3A3C3E49396087401939618A328
:1005D300A3400DD0E0D0E0D0E002050DA3A3A3A378
:1005E300A3A3D0E022D083D082C5F0E493A3C5F0C7
:1005F300C395F0F5F0E493A3C395F04005E5F0044B
:100603008001E475F002A42582F582E5F03583F5D7
:1006130083E493A3C0E0E493C0E022C0E074F21249
:1006230003C2E589A2E15003121563758900C2C5AF
:100633007F01020421C0E074F21203C2E58BA2E041
:100643005003121563758B00C2E880E474048004C0
:1006530074028000CCC0E0EDC0E0E510C39CCCADDB
:100663001150011D10AF068C108D1180068C108D5A
:1006730011D2AF12074BD0E0FDD0E0FC2274028010
:1006830000CCC0E0EDC0E0E510C39CCCAD1150013F
:100693001D10AF068C108D1180068C108D11D2AFFA
:1006A300120729D0E0FDD0E0FC22C0E0C0F088F0C2
:1006B300E4936670080874019366187000A8F0A3A9
:1006C300A3700BD0F0D0E0D0E0D0E002050DA3A3DF
:1006D300D0F0D0E022D083D082CCC0E0E493A360FA
:1006E300061207AA1470FAE493A360061208991479
:1006F30070FAD0E0FCE493A3C0E0E493C0E022C02E
:10070300E074F21203C21215E77F01020421C0E074
:1007130074F21203C21215ED80EFC0E074F21203FB
:10072300C21215F380E3CAC0E0E493A3C582CCC52B
:1007330082C583CDC583F0A3C582CCC582C583CDD5
:10074300C583DAE5D0E0CA22CAC0E0E0A3C582CC03
:10075300C582C583CDC583F0A3C582CCC582C583BD
:10076300CDC583DAE6D0E0CA22C008C3E096F50817
:1007730008A3E096420808A3E096420808A3E0967F
:1007830045087001D3D008227009080808226016B2
:10079300181818C6C333C608C633C608C633C608F6
:1007A300C633C6D5E0EA22C0E0E493A3D39C50103D
:1007B300E493A3C39C400AD0E0D0E0D0E00206F566
:1007C300A3A3A3D0E022C09FF59FE473D09F22D0C0
:1007D30083D082C09FE493C0E0740193C0E07402AD
:1007E30093F59F227404800A7403800674028002C6
:1007F3007401C0E0F404120802D0E0120A3D22257D
:1008030010F58210AF08F510400215118008F5109D
:1008130040021511D2AF85118322C0D0251010AF2D
:1008230008F510500205118008F51050020511D289
:10083300AFD0D022BB0102E722C082C08389828A63
:1008430083BB0003E08002E493D083D0822260164E
:10085300080808C6C313C618C613C618C613C61895
:10086300C613C6D5E0EA22C3E0C696F608A3E0C6DF
:1008730096F608A3E0C696F608A3E0C696F622C04D
:10088300E074F21203C2C2C0E5D1A2E4500312160F
:100893001D7F01020421C0E0E493A36C7009D0E042
:1008A300D0E0D0E00206F5A3A3D0E022251010AFDC
:1008B30008F510400215118008F51040021511D2F9
:1008C300AF22C3E09608A3E09608A3E09608A3E04E
:1008D30096A2D265D03322E066701008A3E066705A
:1008E3000A08A3E066700408A3E06622C3E096F05A
:1008F30008A3E096F008A3E096F008A3E096F022A0
:10090300E026F608A3E036F608A3E036F608A3E0EF
:1009130036F622E627F60809E637F60809E637F63B
:100923000809E637F622E056F608A3E056F608A3D0
:10093300E056F608A3E056F622E056F008A3E05688
:10094300F008A3E056F008A3E056F022E657F608B5
:1009530009E657F60809E657F60809E657F622E0CE
:1009630026F008A3E036F008A3E036F008A3E0364B
:10097300F022E647F60809E647F60809E647F608CF
:1009830009E647F622700422600D18C6C333C60871
:10099300C633C6D5E0F41822C0E0E8C0E0E5812400
:1009A300FCF8E6A2E7D0E0F8D0E022E4C396F6082C
:1009B300E496F608E496F608E496F622C0E074F2AC
:1009C3001203C2C2C71217257F01020421C6F4C64F
:1009D30008C6F4C608C6F4C608C6F4C622C3E7961A
:1009E3000809E7960809E7960809E79622C3E096FF
:1009F30008A3E09608A3E09608A3E0962275D0002A
:100A030075814075100075110400020479600C08AB
:100A1300C6C313C618C613C6D5E0F422E6F008A36E
:100A2300E6F008A3E6F008A3E6F022E0F608A3E068
:100A3300F608A3E0F608A3E0F622CAC0E0E6F0A3B6
:100A430008DAFAD0E0FA22E0FAA3E0FBA3E0FCA381
:100A5300E0FD22EAF0A3EBF0A3ECF0A3EDF022E536
:100A6300C754F84401F5C77901222510F582E4350E
:100A730011F583221207D20CB3011207D249B40134
:100A83001207D2E4B4011207D2E4B5011207D2026D
:100A9300B6011207D2AD5B001207D2BF5B0012078B
:100AA300D2ED5B001207D24F5C001207D2D45C0078
:100AB3001207D2725D001207D2F55D001207D21041
:100AC3005E001207D2375E001207D2725E00120771
:100AD300D2B25E001207D2025F001207D2BC5F00DF
:100AE3001207D24160001207D2C860001207D2B0C9
:100AF30061001207D20962001207D2816200120755
:100B0300D29362001207D29D62001207D27A630069
:100B13001207D2D963001207D2DB64001207D25442
:100B230065001207D2A865001207D21D66001207DE
:100B3300D2C967001207D2DD67001207D23F6800EF
:100B43001207D2C468001207D21169001207D23902
:100B53006A001207D2246B001207D2916B001207AE
:100B6300D20D6C001207D26F6C001207D2A76C0073
:100B73001207D2826D001207D2826E001207D2DFF3
:100B83006E001207D2286F001207D2506F001207AF
:100B9300D2D96F001207D26F70001207D2D570003E
:100BA3001207D2E670001207D25F71001207D2EC6F
:100BB30071001207D22E72001207D2BE7200120702
:100BC300D2F372001207D23473001207D2CD74002D
:100BD3001207D26C76001207D2A876001207D2C988
:100BE30077001207D29879001207D2A27900120770
:100BF300D2AC79001207D2B679001207D2C07900BD
:100C03001207D2CA79001207D2D479001207D2226E
:100C13007A001207D2467A001207D26A7A001207C4
:100C2300D2C37A001207D2087B001207D2267B00B8
:100C33001207D29D7B001207D2E77B001207D21D59
:100C43007C001207D2B27D001207D23E1E001207AB
:100C5300D28A1E001207D25620001207D294200017
:100C63001207D23621001207D26A21001207D28F4F
:100C730021001207D2EC22001207D2EC2300120744
:100C8300D2BE26001207D2AF27001207D25928007E
:100C93001207D27429001207D2AD2C001207D239E1
:100CA3002D001207D26E2D001207D2462E00120716
:100CB300D21C2F001207D2BF2F001207D21A300006
:100CC3001207D24730001207D26930001207D2AFA1
:100CD30032001207D26133001207D2B83300120771
:100CE300D22534001207D2E634001207D21B350096
:100CF3001207D26F35001207D2A435001207D2F2C1
:100D030035001207D24936001207D2D43600120733
:100D1300D25D38001207D21A39001207D2493A00BD
:100D23001207D2B83C001207D2603D001207D283EB
:100D33003F001207D22040001207D267400012077B
:100D4300D22E42001207D24242001207D24F420073
:100D53001207D27942001207D28542001207D2A3AA
:100D630042001207D26D43001207D29743001207C5
:100D7300D2A443001207D2FC43001207D2824400DC
:100D83001207D26945001207D25B46001207D20B45
:100D930047001207D2A947001207D2C04700120723
:100DA300D2F947001207D21748001207D25B480056
:100DB3001207D28248001207D27E49001207D2F9E5
:100DC30049001207D21C4B001207D22E4C00120707
:100DD300D21F4D001207D2864D001207D2604E007B
:100DE3001207D2944E001207D20A4F001207D22FD5
:100DF3004F001207D2554F001207D28B4F00120734
:100E0300D28F51001207D28152001207D2465300EB
:100E13001207D2C654001207D20F55001207D23B55
:100E230055001207D2C255001207D22A56001207E4
:100E3300D27C56001207D2C356001207D2EF5600D7
:100E43001207D22457001207D24B57001207D2A918
:100E530057001207D28658001207D2EE5800120725
:100E6300D21759001207D28759001207D2FC590032
:100E73001207D24E5A001207D2735A001207D2B980
:100E83005A001207D2D65A001207D2735B00120718
:100E9300D29F81031207D2EA81031207D25DB70101
:100EA3001207D2A8B7011207D203B8011207D2540E
:100EB300B8011207D26FB8011207D2A5B801120701
:100EC300D2C6B8011207D2D0B8011207D2E5B901D0
:100ED3001207D203BA011207D273BA011207D286DC
:100EE300BA011207D294BA011207D235BB01120715
:100EF300D209BC011207D224BD011207D2A0BD0141
:100F03001207D2AABD011207D21DBE011207D234A5
:100F1300BE011207D276BE011207D2B4BE01120778
:100F2300D2E3BE011207D21ABF011207D238BF01A2
:100F33001207D25CBF011207D29DBF011207D288EC
:100F4300C0011207D2CEC0011207D2F9C0011207A5
:100F5300D266C1011207D28DC1011207D2D2C101DB
:100F63001207D2E0C1011207D239C2011207D276A9
:100F7300C2011207D2BDC2011207D2EEC20112078B
:100F8300D211C3011207D21CC3011207D23AC30103
:100F93001207D2F6C3011207D200C4011207D23FCF
:100FA300C4011207D255C4011207D25EC40112074D
:100FB300D2A2C4011207D2B6C4011207D2A1C5013D
:100FC3001207D2B4C5011207D2C9C5011207D271E3
:100FD300C6011207D2BDC6011207D273C701120799
:100FE300D27EC7011207D2CCC8011207D2F8C801BA
:100FF3001207D239C9011207D253C9011207D28A83
:10100300C9011207D2EDCB011207D275CC01120729
:10101300D2F5CC011207D238CF011207D248CF0143
:101023001207D24BCF011207D257CF011207D26B4F
:10103300CF011207D28ACF011207D2BDCF01120707
:10104300D282D0011207D2E9D0011207D24DD101C9
:101053001207D2D7D1011207D288D2011207D2AF19
:10106300D2011207D23FD3011207D24BD301120789
:10107300D27AD3011207D29CD3011207D2C3D30170
:101083001207D228D4011207D2DBD5011207D2DE10
:10109300D5011207D248D6011207D23BD701120756
:1010A300D220D8011207D2ABD8011207D2EED90150
:1010B3001207D2B1DA011207D2EADA011207D21B00
:1010C300DB011207D224DB011207D208DC0112076D
:1010D300D298DC011207D236DD011207D2F6DD0108
:1010E3001207D26FDE011207D29EDE011207D2DB96
:1010F300DE011207D2AD99021207D2BB9902120781
:10110300D2319A021207D2699A021207D2B19A0215
:101113001207D2B89C021207D29A9E021207D25922
:10112300A1021207D285A1021207D2A5A1021207BA
:10113300D208A2021207D246A2021207D272A20258
:101143001207D2ACA2021207D275F7021207D2A578
:10115300F7021207D2FAF7021207D2F7A202120716
:10116300D201A3021207D245A3021207D2ECA302B3
:101173001207D20FA4021207D2AFA4021207D2772A
:10118300A7021207D285A7021207D2D8A702120715
:10119300D2FEA7021207D256A8021207D2C6A8028D
:1011A3001207D219A9021207D282A9021207D2008A
:1011B300AA021207D260AA021207D29FAA0212073A
:1011C300D2B1AA021207D2C3AA021207D2E2AA021A
:1011D3001207D284AB021207D2A3A7011207D2FFD0
:1011E300FC021207D209F4021207D268F4021207B2
:1011F300D291F4021207D287F5021207D21CDF0143
:101203001207D2FBDF011207D237E0011207D2E047
:10121300E1011207D222E2011207D2CDE301120744
:10122300D211E4011207D2D9E4011207D266E50113
:101233001207D2CDB0011207D24DE6011207D28DAB
:10124300E6011207D233E8011207D2D8E9011207E7
:10125300D226EC011207D234EC011207D29CEC0126
:101263001207D2D8EF011207D2E97F001207D2F496
:1012730081031207D2F9E6021207D20CE702120722
:10128300D299E7021207D2D4E7021207D2EFE7029C
:101293001207D214E8021207D248E8021207D279E1
:1012A300E8021207D298E9021207D24CF20212079F
:1012B300D2B9F2021207D2D5F2021207D217F30201
:1012C3001207D240F3021207D2D8F3021207D2F167
:1012D300F3021207D237B4021207D2D3B4021207B1
:1012E300D294B6021207D2AAB7021207D2C3B80227
:1012F3001207D2A1B9021207D2E6BA021207D2FE2E
:10130300BA021207D216BC021207D2858E02120746
:10131300D2D08E021207D2768F021207D2FC8F022E
:101323001207D24D90021207D26190021207D248DF
:1013330092021207D2C592021207D2EF920212074B
:10134300D27A94021207D29794021207D2D8940247
:101353001207D20D95021207D26695021207D281A7
:1013630095021207D2F695021207D2889702120746
:10137300D2B097021207D2D997021207D239980234
:101383001207D25698021207D25998021207D25C5A
:1013930098021207D2C798021207D2F698021207D0
:1013A300D20999021207D26F99021207D2AA99029F
:1013B3001207D22281031207D22E81031207D268A9
:1013C30081031207D245BC021207D294BC02120752
:1013D300D236BE021207D2E2BF021207D22AC002DD
:1013E3001207D261C1021207D2EEC2021207D21053
:1013F300C3021207D262C3021207D2E4C302120766
:10140300D219F0011207D244F0011207D231F101CF
:101413001207D285F1011207D2E1F1011207D22D91
:10142300F2011207D2A0F2011207D224F30112072C
:10143300D29AF3011207D2DCF3011207D206F801A4
:101443001207D2A7F9011207D287FB011207D2B301
:10145300FB011207D2C6FC011207D259FE01120783
:10146300D20080021207D2B880021207D241810251
:101473001207D20282021207D2E682021207D24375
:1014830083021207D25184021207D2028502120785
:10149300D25285021207D21187021207D2C18702E4
:1014A3001207D22888021207D2728A021207D2CDFB
:1014B3008B021207D2678C021207D22F8D021207FA
:1014C300D27783031207D28083031207D283EE02FB
:1014D3001207D2EDEE021207D2A6EF021207D20CC8
:1014E300F0021207D2D2DE021207D22BDF0212075A
:1014F300D2BAE0021207D29980031207D2E3800323
:101503001207D2C0F5021207D2CEF5021207D28516
:1015130083031207D20080031207D210800312073D
:10152300D22E80031207D28F80031207D2E1FB026F
:101533001207D208FC021207D28DFC021207D2E670
:10154300FC021207D2DD9D031207D2EBFE01120744
:10155300D20DFF011207D277FF011207D282FF01DA
:101563001207D2C6FF011207D293CE021207D2A1ED
:10157300CE021207D2E2CE021207D2FCCE0212072B
:10158300D24DCF021207D24ED0021207D273D0022D
:101593001207D290D0021207D2ADD0021207D2D2D4
:1015A300D0021207D20BD1021207D249D10212077D
:1015B300D2C0D1021207D25CD2021207D211D302D7
:1015C3001207D21FD3021207D299D3021207D255A0
:1015D300D4021207D2E0D6021207D289FA02120706
:1015E300D2C2FA021207D2DFFA021207D23DFB027D
:1015F3001207D2A2FB021207D26CC9021207D2D978
:10160300C9021207D293CA021207D200CB021207F1
:10161300D226CC021207D299CD021207D2FDCD02F7
:101623001207D249CE021207D252CE021207D2615A
:10163300CE021207D274CE021207D28ACE0212074A
:10164300D218C4021207D26BC4021207D2DFC60239
:101653001207D211C7021207D233C7021207D24CA4
:10166300C7021207D265C7021207D297C802120730
:10167300D22DC9021207D27DF0021207D2AFF002B7
:101683001207D2BBF0021207D2EEF0021207D217F2
:10169300F1021207D245F1021207D2C2F102120778
:1016A300D2F1F1021207D2AFE9021207D2D5E90251
:1016B3001207D212EA021207D224EA021207D24018
:1016C300EA021207D2AEEA021207D2B7EA021207FF
:1016D300D216EB021207D23AEB021207D2F9EB024F
:1016E3001207D206EC021207D217EC021207D294A9
:1016F300FF021207D2E1FF021207D2C5DA02120774
:10170300D2EDDB021207D2FADB021207D219DC0296
:101713001207D22FDC021207D243DC021207D2BD1A
:10172300DC021207D23BDD021207D2B4DD0212073C
:10173300D2FCDD021207D20CDE021207D2FBFE023C
:101743001207D21FFF021207D247FF021207D26FFE
:10175300FF021207D245EC021207D25EEC02120717
:10176300D26AEC021207D27EEC021207D29CEC0280
:101773001207D2A6EC021207D2B0EC021207D2C3B0
:10178300EC021207D2F7EC021207D230ED02120775
:10179300D261ED021207D2AFED021207D2FCED02C5
:1017A3001207D217EE021207D221EE021207D2322B
:1017B300EE021207D278EE021207D23F820312071B
:1017C300D2E4AB021207D210AC021207D22CAC0245
:1017D3001207D23FAC021207D255AC021207D2C590
:1017E300AC021207D2F8AC021207D252B0021207AF
:1017F300D288B1021207D2BBB1021207D220B202C1
:101803001207D20FB3021207D237B3021207D24C18
:10181300B3021207D25CB3021207D2A0B3021207BB
:10182300D2F5B3021207D20BB4021207D2B67E006E
:101833001207D2D17E001207D2FA7E001207D21409
:101843007F001207D2397F001207D2587F00120798
:10185300D2707F001207D29E7F001207D2B87F009A
:101863001207D28782031207D245D7021207D24C3E
:10187300D7021207D258D8021207D288D802120709
:10188300D2AED8021207D2E1D8021207D2F3D8029D
:101893001207D22DD9021207D293D9021207D2CC42
:1018A300D9021207D218DA021207D245DA02120756
:1018B300D265DA021207D204F9021207D21CF90226
:1018C3001207D2FCF9021207D2FDFD021207D2540D
:1018D300FE021207D291FE021207D2D2FE021207B3
:1018E300D241E4021207D25DE4021207D2A8E40255
:1018F3001207D2C4E4021207D2F5E4021207D21C83
:10190300E5021207D2FFE5021207D209E602120727
:10191300D216E6021207D2CDE6021207D2E1E602A0
:101923001207D2EAE6021207D25BE1021207D23CA7
:10193300E4021207D2FD82031207D2C78203120701
:10194300D22A83031207D25283031207D2D3A501EB
:101953001207D222A4011207D2B3A3011207D2574E
:10196300A3011207D2FAA2011207D2D0A2011207D1
:10197300D2C8A0011207D294A0011207D252A0012B
:101983001207D227A0011207D2699F011207D21CA6
:101993009F011207D2929D011207D28F9D01120758
:1019A300D2959C011207D2619C011207D29C9B0124
:1019B3001207D2CF99011207D28299011207D2538B
:1019C30099011207D25099011207D244B0011207AC
:1019D300D2FEAF011207D24DAF011207D240AF01C1
:1019E3001207D21EAC011207D24399011207D20685
:1019F30099011207D2F898011207D2BBA901120765
:101A0300D2A497011207D22897011207D2F59601A3
:101A13001207D29996011207D2F7E5011207D254A1
:101A2300A8011207D26C96011207D2739301120711
:101A3300D27592011207D2FC91011207D2C791010C
:101A43001207D29091011207D28491011207D2E4B6
:101A530090011207D22090011207D2E68D011207DE
:101A6300D20B8B011207D2CC8A011207D26B8901E8
:101A73001207D21789011207D25E88011207D2C456
:101A830087011207D26387011207D29D87011207CC
:101A9300D2BEAB0200000080FBE4730001363601C6
:101AA3000100010201000103010001040106060512
:101AB300020000070100340801000F090401010DB1
:101AC3000100FF0E08000017020000190100FF1AB1
:101AD3000100011B0100051C0100081D0200001F7D
:101AE30001000120010001210200002301000F2455
:101AF3000200002601000127010308280200FF2A33
:101B03000100072B0102402C0100002D0100012ED2
:101B13000100012F0100FF30010B1C310800003AC6
:101B230001000801017101010101011101010131EC
:101B330001010101018001100161013B00140063F7
:101B43000173017201620143010001130106013DAA
:101B5300013500040112010001000100010001042C
:101B6300010401330133013C014401320136000019
:101B730001000165010001350081010001050182B9
:101B8300018301000103027102300160021102703E
:101B9300020102020202028002100261023A0041C3
:101BA30000630273027202620243020002130238EC
:101BB30000000200020402120200020002000200FE
:101BC3000204020402370037003C024402000239D7
:101BD30000000200026502000235028102000205D4
:101BE30002820283020002030071003001600011CF
:101BF30000700031022003500480001000610000D7
:101C030000140063007300720062004300000013BD
:101C130000060000000000040012000000000000A5
:101C230000000004000400370037003C02440000B9
:101C33000000000000000065000000350081000086
:101C4300000500000083000000010371030103018C
:101C53000301030103010322030203010310030031
:101C63000300030003000300030003000342030017
:101C730003240306030003000304031203250323C1
:101C830003250323030403040300030003000344A5
:101C930003000300032303000365032100350381CD
:101CA30003000305030003000300033600010006DD
:101CB3000000000F00000000000000000000000012
:101CC3000003FFFF00000403FFFF0000FFFF0FF40A
:101CD300010005C4040320000100000B0000000004
:101CE30000000000030103000300040008001000CB
:101CF3001F003E007B00F600EC01D703AF075D0F2A
:101D0300B91E713D000001007F1402001914030085
:101D13001F140400251405002B1406003714FFFFBD
:101D23000000390F690F3F0F450F630F570F510F16
:101D33006F0F750F7B0F870F4B0F330F2D0FD5C50C
:101D4300C5B5A5A595858575756565555545453510
:101D530035252515050AB70C02810C05930C078759
:101D63000C0C6F0C0D7B0CFF00009C36063A703D8B
:101D7300D9404344AD47174B814EEA5100160F003B
:101D8300000B150B020002220F3200000656777774
:101D93007777777777777777777777777700010232
:101DA300030405060708090A0B0C0D0E0F1D102F5F
:101DB300103510030F3B10FD0E090F9510B310B92A
:101DC300109B10A710A11000034948424D18172576
:101DD30005020001191618161615230300303017D3
:101DE300181921301B1D1F300C0E020B040B0A07A0
:101DF30008000F303016181920231A1C1E30003823
:101E03003C3E363B3B352B432C5D0F810FAD108D94
:101E13000F930F89104110471053104D10000515F3
:101E23000D0910080400000000000000BE040A0EA3
:101E330000040015000405080F040CC082C083E9E8
:101E43009004BBF0E4900470F01218B79004CEE451
:101E5300F0A3F09004BCF0A3F0120E191218BD9079
:101E63000440E4F0A3F09004DEE07002A3E0600914
:101E73009004DE1243E7121A9C901E3BE493FA7916
:101E83000212191702406074F2120356EAFEEBFFC6
:101E930074805FF9E47001E9706CEEA2E040030224
:101EA3001F26900475E0640F700B7900120C57E93C
:101EB300600312204C74016EFAEFFB0220310CEC2C
:101EC30075F003A4A9F02458F582E9341DF583E4E1
:101ED3009364FF602AE493FA8508828B83E06A7037
:101EE300DDAA08EC75F003A42459F582E9341DF545
:101EF30083E493C0E0740193F583D082121A9CAA01
:101F030008AB0912118B9004BBE0F91211978A08F0
:101F13008B09EA7001EB60047C0080A3EEFA748005
:101F23006F809754207003021FFD750A007C027DA9
:101F3300007A201220417C0079047A007B00120C85
:101F4300ED8A088B0980187401850882850983A3AB
:101F5300A3A3A3A3A3A3A3A3F0850C08850D09E55D
:101F6300087002E509606E7C007904AA08AB0912C7
:101F73000CED8A0C8B0D750A01E5082404125497A5
:101F830024FFF0A3E034FF1232A87002A3E070C96B
:101F9300850882850983A3A3A3A3A3A3A3A3A3A3C0
:101FA300E0640170A2850882850983A3A3A3A3A388
:101FB300A3E0540470917406850882850983A3A362
:101FC300A3A3A3A3A3A3A3F07AB785088285098358
:101FD30012212B8084120CBD7C0079017A007B00D6
:101FE300120CEDEA7001EB7009E50A70057A201214
:101FF300436274206EFAEF021EBD74025FF9E4704F
:1020030001E9600A120DE3EEFA7402021F2374045D
:102013005FF9E47001E9601212450F1241E17901A1
:102023001227A5EEFA74046F80CD7A007B0080033B
:1020330012081D7F06020563EAFCEBFD7A017B00B3
:102043009004BBE0F912128D2290150A12478A12EE
:102053000C6922C082C08374EA1208AF851082859E
:102063001183AA82AB83794B1218ED7408120A6D9F
:102073007402F07409120A6DAA82AB8379501218A4
:10208300ED7413120A6D12496B12190B7416024088
:102093005D74F4120356EAFEEBFF7508018E828F1E
:1020A30083A3A3A3A3A3A3E05440600D8E828F83D5
:1020B300123854FAA3E0FB8003120D4D74FE6A70CC
:1020C3000374FF6B60308E828F831243E71243B435
:1020D300120DA7E98E828F836006122119E4800511
:1020E3001221197401122F15FAA3E0FB121911E939
:1020F300F509700580127509CDAA098E828F8312A6
:10210300212BE96003750800A908EEFAEFFB120C16
:10211300C9A909022D69E0240DF8A3E012212322A5
:102123003400F98882898322E0240C12479AF91239
:102133000C632274F6120356E9FEEAFF7A0F7B0062
:10214300121185EA7001EB6019740C8A828B83F09B
:10215300EEA3A3F0EF8A828B83A3F012444F79009E
:10216300800279100243BFC082C083900475E0648B
:102173000F7016EA7001EB6010900470E064086061
:1021830005E06404700312203B02406074F4120300
:102193005674FD1208AFEAFEEBFF8E828F83A3A372
:1021A300E0F9120CF38A088B09EA7001EB70030261
:1021B30022D68E828F83A3E064F160288E828F8380
:1021C300A3E064CD601E8E828F83A3E0641A601443
:1021D3008E828F83A3E064E9600A8E828F83A3E0FB
:1021E30064E1701E7900120CC9E9601685088285C6
:1021F3000983A3A3A3A3A3A3E04420F0A3E0F002D5
:1022030022A58E828F83A3E0C0E07402120A6DD0F0
:10221300E0123F5F124C0A122C3F12517B85108251
:10222300851183AA82AB837005120BD98003120D2B
:102233008F8E828F83A3E064F160678E828F83A386
:10224300E064CD605D8E828F83A3E0641A60538E59
:10225300828F83A3E064E160498E828F83A3E0646D
:10226300F0603F7402120A6DE064B760358508823E
:102273008509831222E2750A01780A1207F37403AF
:10228300120A6DE0F50A780A1207F3EE240C1226FF
:1022930087123683A3A3A3A3A312367B122C7B122C
:1022A300081D850882850983A3A3A3A3A3A3A3A3CE
:1022B300A3E0640270127406850882850983A3A3D0
:1022C300A3A3A3A3A3A3A3F08E828F83A3A3E0F965
:1022D300120CCF120CBD90150E12204F022D64E08C
:1022E300F8A3E0F9E8FAE9FB2274F4120356EAFED4
:1022F300EBFF7508008E828F83A3A3A3A3A3E060E3
:10230300417508088E828F83A3A3A3A3A3A3A3A3CA
:10231300A31238447001EB601075082C8E828F83F2
:10232300A3A3A3A3A3E0D2E0F08E828F83A3A3A3EE
:10233300A3A3E05403640160030223C5430811020D
:1023430023C5EE24181251786030EE241A12517806
:10235300700F124E4A7003A3E069706675082280FD
:1023630061EE241B1223DD241A124358EE2419F5BF
:1023730082EF1236CF120C4580481223CA700375C0
:102383000801124E4A7003A3E0697006E508D2E122
:10239300F508E5088E828F83A3A36011E07006E53C
:1023A30008D2E5801BE508D2E6F5088003E0601259
:1023B30012384EF9120D95E964016006E508C2E092
:1023C300F508A908022D698E828F83A3A3A3A3A373
:1023D300A3A3A3A3124651640222F582EF122C9009
:1023E3001223E722124C2AEE2274F012035674DBF6
:1023F3001208AFEAFEEBFF8E828F83A3A3A3A3E0B1
:10240300601090150CE07002A3E0600690150C12AA
:10241300204F7406120A6DAC82AD838E828F8312B5
:1024230026B1124C1CEE241B124E867413120A6D35
:102433001241E17406120A6DAA82AB83120C75E98C
:10244300851082851183F0740C120A6DE06022748A
:102453001D120A6DE0FD7407120A6DE0FC8E828F77
:10246300831247847901120A89E9600302267F8077
:1024730014900458E0600E851082851183E0A2E178
:10248300400302267F851082851183E0A2E6502E49
:102493007423120A6D1238546403700E7423120AE3
:1024A3006D124704A3E0640D60147406120A6DAA4A
:1024B30082AB83120DB9E96401700302267FEE2417
:1024C3002C12268712296E7003A3E069701F75080A
:1024D3000078081207F378081207F3EE242EF5822A
:1024E300EF1236CF1226A2122C7B12081D7409128A
:1024F3000A6DE0FA90045EE06A600302267F740CC2
:10250300120A6DE070030225C61226A21247861234
:102513000E437401120A6D1243B47401120A6DE082
:102523007002A3E0700302267F7407120A6DE0F8BD
:102533008E828F83A3A3E028F8A3E03400F9740DFF
:1025430028F582E439F583E0FA7401120A6D122644
:1025530096E06A601D7401120A6D12268EEAF090ED
:10256300874D7808120A2E7401120A6D12269C12E6
:102573000A1F79047407120A6D124C122AFCA3E095
:1025830034008C82F583A3AA82AB831211738A0869
:102593008B098C0A8D0B7401120A6D122696A3788F
:1025A3000C120A2E780C79081209E0500302267FD8
:1025B30090873178081209037401120A6D12269C60
:1025C300120A1F900470E064046008E06409600369
:1025D30002267F851082851183E0A2E55055EE2403
:1025E3002E125178C0E07403120A6DD0E0F0EE248D
:1025F3002F125178C0E07404120A6DD0E0F0EE247B
:1026030030125178C0E07405120A6DD0E0F0EE2468
:102613002412268712064F7407120A6DAC82AD830B
:10262300740A120A6DAA82AB83120BDF74041208B8
:102633001D8049A2E650457423120A6D124790701B
:1026430018741D120A6DE0640270317406120A6D6B
:10265300AA82AB83120D8380237423120A6D12475F
:1026630004E064077016741D120A6DE06404700CB4
:102673007406120A6DAA82AB83120D7D7425024A79
:10268300FCEE240BF582EF122C9022A3124705A334
:10269300A3A32212463BA3A322123A30780822EEC8
:1026A300242A122C8D1223E72412122C8D22A3A389
:1026B300A3A3E0F98E828F83A3A32274F712035698
:1026C30074F71208AFEAFEEBFF900470E064036056
:1026D3000DE064016008E0640960030227A08E82B4
:1026E3008F83A3E0600302277C7C007D007A027B5A
:1026F300001218C3EE2402FAEF124458124E8C90C3
:1027030004611241E179531218F379001227A5905D
:102713000470E06409600990046E124786120E3D4E
:1027230074011243DE7404900470F07401120A6D94
:10273300AA82AB83794A1218ED7401120A6DAC8236
:10274300AD837A667B041218DB900461124C267AFF
:10275300037B001218C3900464124C267A047B0096
:102763001218C390045BE0A2E35004D2F08002C2CB
:10277300F01243C412204C80218E828F83A3AE8239
:10278300AF83FC7D007A037B101218C38E828F8384
:10279300E0F91227A5E4900470F0120C9F7409026B
:1027A300367390046E12478A120BEB22C082C083E9
:1027B300900440E07002A3E07041900470E01206C0
:1027C300D8000301D12705E02706EF27FE27900451
:1027D30048E07002A3E0607B90044880709004445A
:1027E300E07002A3E0606C9004448061900446E0D2
:1027F3007002A3E0605D9004468052900440E07054
:1028030002A3E06005122C56702379009004BC806B
:102813000909EA124B04EB12268A12356A7001EB9E
:1028230070EF9004BC124786120BE580269004419A
:1028330012268FA3A3A3E064027005120DD78013A1
:102843009004E4E07002A3E060099004E41243E71B
:10285300121A9C02406074F412035674FB1208AF00
:102863008A088B091229577001EF700302295274E9
:10287300028E828F8312496C79501218ED8508827B
:10288300850983A3E0600302294090046EE064FF9E
:102893007004A3E064FF603590046EE064FE70048E
:1028A300A3E064FF602785108285118312296E706F
:1028B30003A3E069601774EA850882850983A3127C
:1028C3002C957A6E7B0479501218F38070851082F0
:1028D300851183124EFD1241E17A617B0479531213
:1028E30018ED9004611241D87A647B04794B121875
:1028F300ED7A637B0479E11218ED900475E0C394DB
:102903000F5022900463E0C0E07402120A6DD0E01D
:10291300F07404120A6D7401F07402120A6DAA8233
:10292300AB83121905750A00780A1207F3780A12A5
:1029330007F390152DE0F9122C7212081D850882F9
:10294300850983122968F074039004701244467455
:1029530005022D667A0F7B001211858A0A8B0BAE56
:102963000AAF0BEE22A3124193A322124F01E06898
:102973002274F212035674ED1208AFEAFEEBFF8ED7
:10298300828F83A312369E851082851183AC82AD1C
:10299300838E828F83A3A3A3A31226B112477F1230
:1029A3000CAB851082851183E0706A8E828F83A3BE
:1029B300A3A3A3A3A3A3A3E0C3940B4058850882B6
:1029C300850983A3A3A3A3A3A3A3A3E064027045E0
:1029D300900470E064026042E06406603D9004404D
:1029E300E07002A3E06005122C56605E900470E074
:1029F30064086005E06404701C7402120A6DE0F957
:102A03007407120A6DAC82AD83850882850983122F
:102A1300477D120CB17413022033900440E070021E
:102A2300A3E07026750A00780A1207F3780A1207E2
:102A3300F3122C3612268A122C5FFCA3E0FD8508C4
:102A430082850983122C7B12081D9004BC123A4321
:102A53009004BCE0F50AA3E0F50B80378E828F83E8
:102A6300E0F8A3122C5F687003A3E06970198E82EB
:102A73008F83A3A3E0FAE508240DF582E50912513B
:102A83007B6A7003022B0A8E0A8F0BEE124B04EF44
:102A9300123A40EE7001EF70C37A187B001211F105
:102AA3008A0C8B0DAE0CAF0DEE7001EF7003022A92
:102AB300189004BCE07002A3E070059004BC800A87
:102AC300E50A124B04E50B12268A124D808E828F83
:102AD30083124471EE240C12268774FFF0E48E8275
:102AE3008F83A3A3A3A3A31234CBA3A3A3122C84E6
:102AF300E4F0A3F0E508240B125497122C2C1232A5
:102B0300A8C4122C2CA3F07401120A6D124440F0D5
:102B13007402120A6D122C4EA3F0E508240DF582FF
:102B2300E50912268A122969A312453BA3A312546D
:102B3300B21241E17402120A6DE06401601174077C
:102B4300120A6DAC82AD83EE240D122C4580117CEC
:102B5300087D0079FFEE240DFAEF3400FB12116DAE
:102B63007412120A6DE0C0E0EE2415122687D0E03D
:102B7300F090152DE0C0E0122C3612435BD0E0C379
:102B83009A4003022A18122C3F12268AA3E054808B
:102B9300F9E47001E97009900ECCE07003022A1881
:102BA3007406120A6D122C4E700EE07062740412D9
:102BB3000A6DE07006022A18E060147405120A6DAB
:102BC300E0C0E0EE240C124358D0E0C39A502B85AA
:102BD30008828509831254C01241DF122C36125128
:102BE3007BC0E0122684D0E0F07405120A6DE0C0C9
:102BF300E0EE240C122687D0E0F07406120A6DE092
:102C0300600D74018E828F83A3A3A3A3A3A3F07487
:102C130004120A6DE07003022A1874018E828F83F6
:102C2300A3A3A3A3A3F0022A18540F8E828F83A316
:102C3300A3A322E5082410F582E50922E508240B65
:102C430080F5FAEF3400FB1218DB22122C5222E03B
:102C530002341A900440122FB8640122E0F9850867
:102C630082850983A3A3A3A3A3A3A3A3A3E0229081
:102C7300046E124C2A90046412478A120D5F740288
:102C830022A3F0EE2416122C8D22F582EF3400F5E8
:102C93008322F07A617B047953122CA0221218F359
:102CA3007A647B04794B1218F32274F2120356747C
:102CB300F81208AF8A0A8B0B8C0C8D0D89088510CE
:102CC30082851183AC82AD837583867582F7740820
:102CD30012074BF509AC0AAD0B851082851183AA47
:102CE30082AB8312496670037509019004BC801599
:102CF3008E828F83E0650C7004A3E0650D6023EE84
:102D03002416122687123A43EE7001EF601FE5097D
:102D130060DEAC0AAD0BEE240DFAEF340012496508
:102D230060DD8E828F83A3A3E0650870D2EEFAEF95
:102D3300FB740802203374F71203569004BCE0FAC4
:102D4300A3E0800CEA2416123A3D1211F7EEFAEFD3
:102D5300FBEA7001EB70ED9004BCE4F0A3F00236E3
:102D630076740312081D7F0402056374F21203567E
:102D73008A0C8B0DECFEEDFF890B8A828B83124B41
:102D8300098A828B83122E31EEF8EFF9A30EAF83FB
:102D93008A828B83A3A3E0C454F0FA88828983E0F8
:102DA3004A122E3C124193122E37E0333354FCFA6D
:102DB3008E828F83E04A122E37A3E033333354F8E5
:102DC300FA8E828F83E04AF008EFF9A30EAF838572
:102DD3000C828B83A3A3A3A3A3A3E0A2E0E492E0CA
:102DE30013135480FA88828983E04AF0E50C2407A0
:102DF300F508EB123EFB1207EB7C08123C7212083B
:102E03001D124BE9E50C240FF508E50D3400F50917
:102E130078081207EB7C03123C7212081DE50BC302
:102E2300940F4007122EFE124189F0022036A3129E
:102E33004193F022122E3CA322F0850C828B83A3B4
:102E4300A3A32274F2120356EAFEEBFF890B8C0C48
:102E53008D0D8E828F83E08C828D831234D0AE826F
:102E6300AF83E0124010122F14C4124010122F0728
:102E7300E054038C828D83122F12A2E2E492E08C41
:102E8300828D83122F11131313541F124010122F0C
:102E930010A2E7E492E08C828D83A3A3A3A3122F55
:102EA300078E088F09750A0078081207EB7C087DE6
:102EB30000E50C2407124BBF12081D124BE98E08C4
:102EC3008F0978081207EB7C037D00E50C240F12B1
:102ED3004BBF12081DE50BC3940F40148E828F83E2
:102EE300A3A3A3E0C0E0122EFE12268AD0E080073F
:102EF300122EFE12268AE4F0022036E50C2412F587
:102F030082E50D22A3A31234D00EAF8322A3A3A381
:102F1300A3A3F08E828F83E02274F412035674F914
:102F23001208AFEAFEEBFF900440E07002A3E060FA
:102F330010122FB164027009EEFAEFFB120DD1806B
:102F43006890046EE06E7003A3E06F705C740169B7
:102F530060097A827B04124966704E7A007B029084
:102F630004BBE0F9121299EA7001EB703C90047112
:102F73007808120A2E8510828511837808120A1F99
:102F8300900477E0C0E07404120A6DD0E0F0740599
:102F9300120A6D7401F07406120A6D740212496C00
:102FA300120BB5E96092120BBB7407022D669004F5
:102FB30040122FB822123A34A3A3E02274F612036C
:102FC30056EAFEEBFF8E828F83A3858208858309F1
:102FD300E0F9120C03850882850983E064EB600A3B
:102FE3008E828F83A3E064E17007E48E828F83A3D4
:102FF300F012204C75080178081207F38E828F8334
:10300300A3E0F50878081207F37900122C7212086E
:103013001D120CBD0243BF74F61203569004CDE09B
:10302300701F7C0079017A007B00120CEDEA7001BD
:10303300EB600E8A828B83E07002A3E06003120CC4
:103043005D0243BFC082C0831234BC401079FF12BB
:103053000CE7E9FA901E3DE493C39A50047901808A
:1030630002790002406074F11203568A0A8B0B89BD
:103073000E7509008A828B83A3A3A3A3A3A3A3A38F
:10308300E0F9120CF38A0C8B0DAE0CAF0D75080131
:10309300EE7001EF600302313F850A82850B83A343
:1030A300A3A3A3A3A3124C26850A82850B83A3A300
:1030B300A3A3A3A3A3A3E0F9850A82850B831247E5
:1030C30086120CDB8A0C8B0DAE0CAF0DEE7001EF8C
:1030D300700302327E8E828F83A3A3A3A3E4F0A3A3
:1030E300F0E50A240BFAE50B124458E0C0E012267F
:1030F30084D0E0F0120DADEE240C1243AD7509013E
:10310300EE2406F8EF12549A547FF0A3E054FC1215
:1031130032A8540460030231C5901512E0F50A7514
:103123000B007407780A1209888E828F83A3A3A3E6
:10313300A3A3A3E0450AF0A3E0450BF08E828F839F
:10314300A3A3A3A3A3A3E05480F50AA3E05403F528
:103153000B7407780A120A10E50E607974028E82E6
:103163008F83A3A3A3A3122F10240D124796A2E2C9
:10317300500B90045CE0F81226B41241DFE50A70AC
:103183000302324CEE2406F8EF3400F9E8FAE9FBC7
:103193008A828B83E0547FFCA3E054FCFD74FF25FB
:1031A3000AF50A74FF3400F50B7407780A120988CC
:1031B300E50A4CF8E50B4DF98A828B831241E10253
:1031C300324C8E828F83A3A3A3A3A3A3E04480F0F6
:1031D300A3E002313EE50A7005750800806B8E821C
:1031E3008F83A3A3A3A3A3A3E05420601712117F8B
:1031F3008A0A747F550AF8745F288E828F83A3A38B
:10320300A3A380278E828F83A3A3A3A3A3A3E054A6
:1032130010600E12117F8A0A740F550AF874018028
:10322300D88E828F83A3A3A3A37401F0A3E4F074C5
:10323300048E828F83A3A3A3A3A3A3A3A3A3123464
:10324300D77001EB700312328874016509702F8EF9
:10325300828F83A3A3A3A31249DBF9EEFAEFFB1238
:103263000CE1E96019EE240C1251787002A3E060BE
:1032730003123295EEFAEFFB1211F7750800A90855
:103283007F070205637A207B009004BBE0F91211EB
:10329300B522EE240C122C8D12329F22E0FAA3E009
:1032A300FB1211F722F088828983E02274F412035F
:1032B30056750800120CF38A0A8B0BAE0AAF0BEE9D
:1032C3007001EF70030233548E828F83A3A3A3A3F1
:1032D300A3A3A3A3A3E064067077120D058E828FC8
:1032E30083A3A3A3A3A3A3A3E05408F9E47001E970
:1032F300605C8E828F831236927A007B00120CD52B
:10330300EA7001EB704812335712191D7C007D00DF
:103313007A007B0080228E828F8312368C7004A306
:10332300E064FF6029123357121647E9641A601EDE
:103333007C007D00EEFAEFFB120CD58A088B09AEF8
:1033430008AF09EE7001EF70CD79001219237508EB
:10335300010223C590046E1249E112478A2274F7D1
:103363001203568A828B83E5827002E5837009908B
:1033730004CE80068A828B83A3A312356A7001EB85
:10338300602C8A828B83A3A3A3A3A3A3A3E05408E3
:10339300F9E47001E960DDEC7001ED60158A828B60
:1033A300831238546C7003A3E06D70C880047A00F4
:1033B3007B0002367674F21203568A088B09890A57
:1033C300ECFEEDFF7A0E7B001211F1EA7001EB6067
:1033D3003EE48A828B83A3A3A3A3A3A3A3A3123450
:1033E30015E50A123F45A3A3124D7C8A828B83A362
:1033F300A3A3A3E4F0123415123F43124C0AEA24A8
:103403000CF582EB12383E123F44A3A3F0A3F00263
:10341300203612527A80058E828F83A3A3A3A3A39F
:10342300A32274F5120356EAFEEBFF890A8C088D7A
:1034330009EE7001EF60597401650A701479011285
:103443000CE7E9FA901E3AE493C39A500F7911807E
:10345300637404650A70331234BC40F18E828F8327
:10346300A3A3A3A3A3A3A3A3A3E50A1234CB124C40
:10347300088E828F83A3A3E4F0A3F09004CEE070C0
:1034830002A3E09004CE601B800A7402650A60CC3C
:1034930079C180201249EE7002A3E088828983A358
:1034A300A370F1EEF0A3EF1234D77001EB700312A7
:1034B300328879007F030205637904120CE7E9FA85
:1034C300901E39E493C39A221234D0A322F08E8241
:1034D3008F83A322F07A207B009004BBE0F91212C1
:1034E30099EA22C082C083E9FC79009004CE801D52
:1034F3008A828B83A3A3A3A3A3A3A3A3A3E06C6048
:103503000574FF6C7001098A828B83A3A312356A49
:103513007001EB70DB02406074F71203568A828BF2
:1035230083E5827002E58370099004CE80068A8267
:103533008B83A3A312356A7001EB60248A828B8389
:10354300A3A3A3A3A3A3A3A3A3E06970E1EC6014C3
:103553008A828B83E0240D124B13A2E240D08004B5
:103563007A007B0002367612478AEA22C082C08341
:103573009004CE80068A828B83A3A312356A7001DE
:10358300EB60128A828B83A3A3A3A3A3A3A3A3E0C9
:103593006970E280047A007B00024060124E90E87A
:1035A3002274F11203568A0A8B0B8C0C8D0D75084D
:1035B30000750900EA7001EB602E9004CE80068E40
:1035C300828F83A3A3123A43EE7001EF601AAC0C0F
:1035D300AD0DEEFAEFFB850A82850B83121A9CE987
:1035E300640170DB8E088F09AA08AB090232837469
:1035F300F71203569004CE124E8C7C007D00800D92
:10360300E8FCE9FD88828983A3A3124E8CE870014C
:10361300E96030EA687002EB6970E59004CE124706
:1036230086E86A7002E96B88828983A3A370081213
:103633004E8C9004CE8009124E8C8C828D83A3A372
:103643001241E102367674F7120356EAFEEBFFEEFF
:103653007001EF6016120CFF1236A87002A3E0602F
:1036630003123295EEFAEFFB1211F7023676741F4E
:1036730012081D7F01020563124C2A8A828B832262
:10368300E0F98A828B8302342012385864FF2212B5
:103693003858FCA3E0FD228E828F83A3A3E0F508B4
:1036A300A3E0F509228E828F83E0241C12479A122D
:1036B30032A08E828F8312329FEE240C1236C322E5
:1036C300F582EF3400F583E022F582EB1236C6F97A
:1036D3002274F212035674FC1208AFEAFEEBFF7574
:1036E30008FE7509FF120CC3E9600579110238332E
:1036F300EE24151251786037901527E0C43354E057
:10370300C0E0E0333354FCFAD0E04AC0E0EE2415C5
:10371300122687D0E01234CB1238447001EB600FCD
:103723007508FF124527EE2415125178D2E0F08E6A
:10373300828F8312464B6006EE241212383BEE242E
:10374300131251787003741EF012517564017016D0
:10375300900F9CE0600D900458E0700A8E828F8376
:10376300E07003123838EE24141251787015900467
:103773004DE0C0E0EE2414122687D0E0F090044D13
:10378300E004F08E828F83E064017016EE240B1246
:1037930038516402700CEE240F1251784440F0A3A8
:1037A300E0F0851082851183AC82AD83EEFAEFFBE6
:1037B300120D1D8A0A8B0B74FE6508700474FF6476
:1037C300FF700312369AEA7001EB60608E828F837A
:1037D300E0C0E07401120A6DD0E0F07402120A6DC9
:1037E300124D807401120A6D85820C85830D780C4D
:1037F3001207EFEE240F122687120653EE240E1241
:103803005178F50C780C1207F37405120A6DE0F980
:10381300AC08AD09120D17740512081DE9FE7410EA
:103823006E700BAA0AAB0B1211F780027E10EEF931
:103833007404022033EE2411F582EF122C90E4F08D
:103843002212478A79FF1219D1EA22EE241D122C83
:103853008D123858221246FAE022C082C08374DEE9
:103863001208AF8A828B83A3A3A3A3124E8C740E78
:10387300120A6DE8F0A3E912390F740C120A6D12E3
:103883003908240DF582EB12517BC0E0741A120A39
:103893006DD0E0F01249E7124E897420120A6D12BE
:1038A30039082415F582EB12517BC0E07408120A23
:1038B3006DD0E0F0EA241CF582EB124E89741212EB
:1038C3000A6D1241E174FF851082851183F0740142
:1038D300120A6D74FFF07402120A6D74FFF0908780
:1038E3004D12064F7404120A6DAC82AD8374071235
:1038F3000A6DAA82AB83120BDF740412081D7900D0
:10390300742202405DE8F0A3E9F0EA22F08A828B98
:1039130083A3A3124E902274F012035674EE12087E
:10392300AF7410120A6D1243B48C088D09890B749D
:1039330022120A6DE0F50C7423120A6D123A4374D5
:1039430025120A6DE0F50EA3E0F50F750A107A1E35
:103953007B001211F17402120A6D1243B474021245
:103963000A6DE07002A3E07003023A23851082859A
:103973001183AA82AB83795012426A120A6D123AFA
:103983002AA31243B47402120A6DE0240B12211C01
:103993007402F0120A6D123A2A7402F0120A6D12BE
:1039A30043E7124C0A7402120A6DE0241B12211C15
:1039B300E50BF07402120A6DE0240C12211CE50CD5
:1039C300F07410120A6D124273120A6DE0241C1275
:1039D300211C1243B47408120A6D124D80740A122A
:1039E3000A6DE50CF0850E82850F83C082C0837457
:1039F3000D120A6DAC82AD83D083D082740312079B
:103A03004BF97402120A6DAA82AB83120CC9E964E2
:103A1300017005750A0080087402120A6D12329B48
:103A2300A90A7412024AFC123A30023420123A34C0
:103A3300221246FE023420EA240BF582EB122C906C
:103A4300E0FEA3E0FF2274F0120356EAFEEBFF8CC4
:103A5300088D0974088E828F83122C84E0600874A9
:103A6300108E828F83A3F0EE241712517860098E93
:103A7300828F83A3E02408F0EE24151251786008A6
:103A83008E828F83A3E004F08E828F83A3A3A3A3EC
:103A9300A3A3E060198E828F83A3A3A3A3A3A3A3ED
:103AA300E0C3332402FA8E828F83A3E02AF01251FB
:103AB300756005750B0E8003750B008E828F83A3D3
:103AC300E0C0E0EE240D122687D0E0FAE02A250BB1
:103AD3008C828D83F0125175600512420E2AF08597
:103AE3000882850983E0C394754003023C65E0FACC
:103AF3007B001211F18A0E8B0FEA7001EB70030247
:103B03003C6BEEFAEFFB120D23EA850E82850F83E1
:103B13001243B5EE2402F8123C7E123C9DF0EE24D3
:103B2300040808123C7EA3A3123C9DA3A3F0EE2439
:103B330013123C89F0EE2414123C89A3F0750C088F
:103B4300EE24161251786013EE2418124C23E50E5E
:103B53002408FAE50F122C47750C10EE24171251A6
:103B6300786019EE241A124C23850C08E50E2508FB
:103B7300FAE50F122C477408250CF50C8E828F83FF
:103B8300A3A3A3A3A3A3E060728E828F83A3A3A3A3
:103B9300A3A3A3A3E0C0E0850C08E50E2508F582E6
:103BA300E50F12268AD0E0123C93E0C0E0850C08B2
:103BB300E50E2508F582E50F12268AD0E0123C9324
:103BC300A3124BC81207EB8E828F83A3A3A3A3A3D5
:103BD300A3A3E0C333FCE433FD850C08E50E2508FD
:103BE300FAE50F124BC212081D8E828F83A3A3A383
:103BF300A3A3A3A3E0C333250CF50CEE24151251A4
:103C0300786010C0E0E50E250CF582E50F12268AD8
:103C1300D0E0F0122684124BC81207EBEE240D12EB
:103C23005178FC7D00850B088E828F83A3123F1E83
:103C3300E50828FAE439123C7712081D1251756021
:103C430027EE240D125178FD8E828F83A3E0FCAA08
:103C53000EAB0F7900120A89E9600DAA0EAB0F12A1
:103C630011F7750E00750F00AA0EAB0F024AFF7D08
:103C730000EEFAEFFB121161740322EF12549E85DA
:103C83000E82850F8322122C8D123CA4A3A3A322A0
:103C9300F0050C8E828F83025859123CAF123CA45C
:103CA30022E0850E82850F83A3A3A322A3A3F0881A
:103CB300828983A32274F6120356EA2415F582EB54
:103CC30012517B60047C0180027C008A828B83E03A
:103CD300FE90045E123D5974027808120988E508C3
:103CE3004EFEAF09EA2412123D53740678081209F6
:103CF30088E5084EF8E5094FF9ECFDE8FCED49FDD0
:103D0300EA2411123D5374097808120988E5094D14
:103D1300FDEA2416123D53740B7808120988E5094D
:103D23004DFDEA2417123D53740C7808120988E5F7
:103D3300094DFD8A828B83A3A3A3A3A3A3123D5999
:103D4300740A7808120988ECFAE5094DFB0243BFAF
:103D5300F582EB122C90E0F5087509002274F0123D
:103D6300035674FE1208AF8A0E8B0FECFEEDFFE9CB
:103D73008E828F83123F451241A0850E82850F8369
:103D8300A3A3123F191241CA123F67123F191241EE
:103D9300B9123F67A3A3E0C0E0EE2411122687D037
:103DA300E0123F6EA3A3A3E0C0E0EE241212268725
:103DB300D0E0124220600AE50E2408F8E50F124114
:103DC300E78E828F83A3A3A3A3A3A3A3A3E060216E
:103DD3008E828F83A385820C85830D123F1EEE2472
:103DE300151226871241E1850C82850D83E0240894
:103DF300F08E828F83A3A3A3A3A3E0600F123F2AB5
:103E03008E828F83A3A3A3A3A3123F78EE24181259
:103E13005178607C123F2AC0E0EE2419122687D025
:103E2300E0123F78F8E50E28F582E50F12517BC0CA
:103E3300E0EE241A122687D0E0123F78123EF1E416
:103E430033FB123F497002A3E060458E828F83A348
:103E5300E0F8E50E28F508E50F123EFB1207EBEE3E
:103E63002419125178C333FCE433FD7403120A6D31
:103E7300124786123C7812081D123EF1850C82858A
:103E83000D83E02A124BD0EE241B1226871241E148
:103E93008E828F83A3E0FA8A08E50E2508F8E50FE2
:103EA3003400123F05122F15C39AC0E0EE241712F7
:103EB3002687D0E0125972E06031EE2417F508EF3F
:103EC3003400F509850882F583E024F2F0EE241D21
:103ED300F8EF12549A240EFAA3E03400FB88828987
:103EE30083EAF0A3EB124209C39AF0024AFAEE24E2
:103EF300191236C3C333FA223400F509750A007860
:103F03000822F9EE241D123F0D22F582EF3400F54D
:103F130083E8F0A3E922E0FA023C82E0F8E50E2808
:103F2300F8E50F3400F9228E828F83A385820C85F6
:103F3300830DE0F8E50E28F582E50F1236C622A3BD
:103F4300A3A3F002367E1211F1851082851183EA54
:103F5300F0A3EB123F5A22123F5FE022F08510825A
:103F630085118322F0A3E9123F6E22F0850E82852C
:103F73000F83023420F0850C82850D83E004F02248
:103F830074F41203568A088B09EA124017F0EA13F5
:103F930013543F124010A3A3A3F0EAC41313124017
:103FA30017A3A3F0EB123FFDF08A0A8B0B74097879
:103FB3000A120A10E50A123FFDA3F08A0A8B0B745A
:103FC3000A780A120A10E50A5401C0E0EC2418F535
:103FD30082ED12268AD0E0F08A0A8B0B740B780AE2
:103FE300120A10E50A12400AF0740C7808120A103B
:103FF300E50812400AA3F0022D6912400122540180
:104003008C828D8302341F124001A3A322540F8C90
:10401300828D832254038C828D83A3A322C082C00A
:104023008379008A828B83A3A3A3A3A3A3E0900431
:1040330058600FE070228A828B83A3A3E070190972
:104043008016E060138A828B8312477D900461E0BF
:104053006A7003A3E06B70E7800312081DD083D05E
:10406300820207CF74F31203568A0A8B0B890CEC76
:10407300FEEDFF8A828B831241A0850A82850B8322
:10408300A3A31241971241CA1241F8124197124158
:10409300B91241F8A3A3E0C0E0EE2411122687D0A1
:1040A300E01241FFA3A3A3E0C0E0EE24121226878F
:1040B300D0E0124220600AE50A2408F8E50B124119
:1040C300E78E828F83A3A3A3A3A3A3A3A3E0601B71
:1040D3008E828F83A31241A7EE24151226871241E5
:1040E300E1850882850983E02408F08E828F83A30B
:1040F300A3A3A3A3E060238E828F83A38582088575
:104103008309E0F8E50A28F582E50B124189A3A3A8
:10411300F0850882850983E004F0EEFAEFFB120DC7
:1041230035E9705D8E828F83A3A3A3A3A3122968AD
:104133007025E0FC8C08E50A2508FAE50B3400FB42
:10414300EE241D1243ADE50CC39CC0E0EE24171210
:104153002687D0E0F0802A1241A7740E28F8E439AC
:10416300123F05124209FCE50CC39C24F2C39AFDDD
:10417300EE2417122687EDF0AA0AAB0B7901120A77
:10418300897F05020563122C90124193A3A3A322F6
:10419300E00254BBE0FA850A82850B832212478A28
:1041A300120D2F22858208858309E0F8E50A28F895
:1041B300E50B3400F922A3A3A3A3A3E0F9EAF8EEE5
:1041C300240B122C8DE822A3A3A3E0F9EA8E828F9D
:1041D30083A3025859124E908E828F83A3A3E8F0D3
:1041E300A3E9F0223400F9EE2413123F0D1234D068
:1041F300E02408F022F0A3E91241FF22F0850A82AD
:10420300850B83023420F012420E22900459E0F908
:10421300120A8FE9FA850882850983E022F074087F
:104223008E828F83A3125976A3E022C082C0837A41
:10423300D37B0479E21218ED7AD37B04024060C089
:1042430082C083900461124786024060C082C083AB
:1042530074FE1208AF851082851183AA82AB83791D
:104263004B12426A02405D1218ED8510828511835C
:1042730012478A740222C082C083794A1218ED025F
:10428300406074F61203569004DBE0FE04F0EEF98E
:10429300120CF3EA7001EB70EEEE60EBF90243BF30
:1042A30074F0120356EAFEEBFF8C0E8D0F8908742F
:1042B30010120A6DE0F50D7411120A6DE0F50C751C
:1042C3000900120E438A0A8B0BA80AA90BE8700196
:1042D300E97013E50C705DA908AC0EAD0FEEFAEFB3
:1042E300FB120E61806CE508601FE82402F582E989
:1042F30012435BE5082AFAE4340013EA13F0700969
:10430300740188828983A3A3F0E50C6045E50D70F1
:104313001088828983E0600214F0E49004EAF0805C
:10432300319004EAE004F0FA901513E06A70237503
:1043330009018003E4601BE5096017120D4DEA6E65
:104343007002EB6F700CEEFAEFFB7901120BFD12AA
:104353004360024AFFF582EF1236C6FA227A017BE6
:10436300009004BBE0F912129322C082C08374014F
:104373006A7001EB70077A0112328A801490150A71
:104383001243B4EA7001EB600512203B8003124331
:1043930060024060C082C08390150C1243B4024097
:1043A30060C082C08390150E80F1F582EF3400F572
:1043B30083EAF0A3EBF022740D12081D7F020205BD
:1043C30063A2F0E492E01243D279521218F32285E9
:1043D3001082851183F0AA82AB83221243D27942E1
:1043E3001218F3221246F622AA82AB83120CA57A84
:1043F300BE7B0479451218F32274F712035674ED49
:104403001208AFE9FE9004BA1247A11244337412A2
:10441300120A6DEE1244288510828511831243EB34
:104423007413023673F09014B8E0F97CBE7D042255
:104433009014B8E0F97ABE7B04120CAB22122C5212
:10444300A3A322F012444B22EEFAEFFB9004BBE04D
:10445300F9121191223400FB02367EF582EF1245E8
:104463006122A3E088828983F0A308A98322A3A3FE
:10447300A3A3A3A3A3A3A374FEF0A374FFF02274C6
:10448300F41203568A088B097A007B0412436412E0
:10449300450F1241E17409900470F0120D418A0A2C
:1044A3008B0BAC0AAD0BE5082413F582E509122644
:1044B3008A1247861249666401704E1229577001A9
:1044C300EF604674028E828F83F0E508241DF8E5C1
:1044D300091221231247868A828B83A3E0FC8A82F6
:1044E3008B83A3A3E0FBEC8E828F83A3A3F0A3EBC8
:1044F3001232A8F812268E124193124519FAA3E03C
:10450300FB794A1218F312444B022D6990044212AC
:104513004E9090150E22A3F0E5082415F582E509C7
:104523001236C622EE240F1236C34404F0A3E0F081
:1045330022124541A3A3A322124534A3A322F0854B
:104543000882850983A3A322EE241712455E120D68
:1045530041EE241A122C8DEA0243B5F582EF3400A2
:10456300F5837401F02274F612035674F31208AF44
:10457300EAFEEBFF7C0D7D007900851082851183B7
:10458300AA82AB8312116DEE241DF582EF1246341D
:10459300E0F854206008740C120A6D7401F0E854BA
:1045A300806008740B120A6D7401F0E85440600ACD
:1045B300740A120A6D7401F0800A740A120A6DE01B
:1045C30064017005EE24138003EE2415124C23744A
:1045D30002120A6DAA82AB831218DB1226841246DA
:1045E300E51241E1740A120A6DE064017033124668
:1045F30040703B120D4D8A088B09A808A909EE24C7
:104603000B125178687003A3E0697022120D41EA1E
:10461300FCEBFD7402120A6DAA82AB831249666039
:104623000D851082851183AA82AB83120BF7024397
:10463300BA122C9012463B221246FAA3228E828F84
:1046430083A3A3A3A3A3A3A3A3A312465122E0FA84
:10465300A3E0FB120DA7E92274F612035674F312BA
:1046630008AF8A088B09ECFEEDFF7C0D7D00790015
:10467300851082851183AA82AB831256E9A3A3A373
:10468300A3A3A3A3A3A31246E5E8F0A3E91246EB71
:10469300A3E0FAA2E55008740B120A6D7401F0EA64
:1046A300A2E75008740A120A6D7401F0EAA2E6EE5A
:1046B3005004241380022415124C237402120A6D31
:1046C300AA82AB831218DB850882850983A3A3E042
:1046D300C0E0740C120A6DD0E012496C120BF102A7
:1046E30043BA124E90023F60F0EE241D122C8D123D
:1046F30046F6221246FA221246FE22E0F812470438
:1047030022A3E0F58388822274F712035674E11220
:1047130008AFEAFEEBFF8E828F83122FB4A2E05024
:10472300568E828F831222E48A828B83A3A3A3A350
:10473300A3A3E054FEF0A3E01247A18A828B83E097
:10474300241B124796F98A828B83E0241CFAA3E088
:10475300124458124786120D3BE9701B741D120A4E
:104763006D1247907011851082851183AC82AD83E1
:10477300EEFAEFFB120D89023671A3A3A3A3A3A341
:10478300A3A3A312478A22E0FAA3E0FB221238581C
:1047930064042212479A22F8A3E01254A222123F81
:1047A3005FAC82AD8322E9FA790074046A600A740B
:1047B3000A6A600574036A7001090207CF74F6126E
:1047C300035674208A828B83F07401A3A3F0120B27
:1047D300A98A088B09AE08AF09EE7001EF60077470
:1047E300018E828F83F09004AEE0700312454BEE8E
:1047F300FAEFFB0243BFC082C08374019004D0F080
:10480300E9A2E350037403F0E9A2E15004E0D2E229
:10481300F002406074F612035679007C008A088B1C
:1048230009780812051DF8FF074A484848484848D0
:10483300484848414845484A483E480C80097C045A
:1048430080050C80F67C089004D0E05C600309804E
:1048530003EC6001090243BF74F61203568A828B8C
:1048630083E07014A3E07002A3E0600C8A828B8360
:10487300124785121A0180047A007B000243BF7439
:10488300F512035674F31208AFEAFEEBFF8C088DA2
:1048930009750A12EE7001EF70057900024957900D
:1048A3000461E06E7003A3E06F7018120D41EAFC1F
:1048B300EBFDAA08AB091249667005750A0180036E
:1048C300750A00E4851082851183F07401120A6D64
:1048D300EEF0A3EF12496C120AD7E9602B740312AE
:1048E3000A6DAA82AB83120ABFE96401701A750AC2
:1048F300017403120A6DAC82AD83AA08AB09124995
:10490300666021750A00801C7412650A7016900493
:10491300ADE06402700EAC08AD09EEFAEFFB120ACB
:10492300F5E970DFAC08AD09EEFAEFFB120E49E9C9
:10493300FA740A6A7005750A01801774A06A701206
:10494300AC08AD09EEFAEFFB120E55EEFAEFFB12CF
:104953000E6DA90A740D12081D0234B724FFFAE97B
:104963003413FB1218D5E922E41249702212497458
:1049730022F08510828511830243D974F7120356FE
:10498300EAFEEBFF7508008E828F83A3A3A3A3A384
:10499300A3A3A3E06017EE24151223DD12268512CC
:1049A3004786120DB3E9640170037508018E828F87
:1049B30083A3A3A3A3A3A3A3E06018EE2413122647
:1049C300871249DBFAA3E0FB120DB3E9640170031C
:1049D300750801A9080236761249E1022C67124CC8
:1049E3002A0254BBEA240BF582EB22124E908882F2
:1049F3008983A3A3E02274F012035674F31208AF61
:104A03007403120A6DECF0A3EDF08A0E8B0F890B81
:104A1300741D120A6DE0F50A7E01EE120A6D740A26
:104A2300F0E97007E50AC333240AF0851082851183
:104A330083AA82AB83120D9B8A088B09EA7001EB70
:104A43007003024AF4123A3A7409124BF2450A12FD
:104A53004BFF120A6D124BD8E50B70307A0080269B
:104A6300EAC333F8E433F9741E120A6DE028F8A39D
:104A7300E039F988828983124B0988828983122E4F
:104A830031A30EAF830AEAC3950A40D4E50824177D
:104A9300F582E509124461120D41E508241AF582F5
:104AA300E5091243B07405120A6DAC82AD83AA0EF8
:104AB300AB0F120AC5E96021E508124B04E50912A0
:104AC30044617405120A6DA882A983E5082418F5C8
:104AD30082E50912268A1241E1850882850983A3AA
:104AE300A3E50EF0A3E50FF0AA08AB09120BA3E9A7
:104AF300FEEEF9740D8002740212081D7F08020590
:104B0300632416F58222124193F0A3AE82AF83226F
:104B1300FEA3E03400FF022F1674F012035674FE56
:104B23001208AF8510828511831243B489088C0E55
:104B33008D0F7412120A6DE0F50B900F0CE07002EA
:104B4300A3E06075E50BC333F8E433F9740E28FA78
:104B5300E439FB1211858A0C8B0DAE0CAF0DEE7090
:104B630001EF605574D48E828F83124BD01241DBD8
:104B73008E828F83A3A3A3A3E508F0AC0EAD0FEE43
:104B83002405122C45EE240D122687E50BF0741331
:104B9300120A6D124BC81207EBE50BC333FCE43367
:104BA300FDEE240EFAEF124BC212081DEEFAEFFBD4
:104BB300900F0C1243E7121A9C024AFAFAE50D34DD
:104BC30000FB023C78E0F508A3E0023EFD123F5AE9
:104BD300F8A3E0F9221223E7FAEFFB124BE22212C9
:104BE30018DB124BE922EE2408FEEF3400FF228E7D
:104BF300828F83F0A3E50BC43354E022F0A3AE828B
:104C0300AF83740322A3A3E508F0A3E509F022E030
:104C1300FA8E828F83A3A3E02212478A120D2922E0
:104C2300122C8D124C2A22E002369574F712035689
:104C3300E9FE7C007D0078007900800C124CFE2C8C
:104C4300FCA3E03DFD1256241258765037E8FAE9EA
:104C5300FBEA75F012A4FAAFF075F012EBA42FFB88
:104C6300EA2487F582EB3412F583E064FF60D61201
:104C73004CFE7002A3E060CDEE60C1124D03E4F080
:104C8300A3F080C178007900800C124CDD2CFCA3CA
:104C9300E03DFD1256241258695038E8FAE9FBEA60
:104CA30075F017A4FAAFF075F017EBA42FFBEA1217
:104CB3005864EB1258377004A3E064FF60D5124CBC
:104CC300DD7002A3E060CCEE60C0124CE2E4F0A31E
:104CD300F080C0ECFAEDFB023676124CE2E022E8FB
:104CE300FAE9FBEA75F017A4FA75F017EBA42FFBAA
:104CF300EA2412F582EB3414F58322124D03E022E9
:104D0300E8FAE9FBEA75F012A4FA75F012EBA42FA6
:104D1300FBEA2493F582EB3412F5832274F6120333
:104D230056EAFEEBFF9004D1801388828983E06EFC
:104D33007003A3E06F603F88828983A3A312359F2A
:104D43007001E970E57A047B001211F18A088B097E
:104D5300A808A909E87001E9601C88828983124DBB
:104D6300809004D112478688828983A3A31243B417
:104D73009004D11241E10243BFA3A3A3A3EEF0A386
:104D8300EFF02274F41203567E009004D180070ED4
:104D930088828983A3A312359F7001E970F1EEC362
:104DA30033FAE433FB124E3A7001EB7003024E34D4
:104DB3007F009004D1802488828983124C26EFC31C
:104DC30033FAE433FBE5082AF582E5093BF583EC86
:104DD300F0A3EDF00F88828983A3A312359F70019E
:104DE300E970D49004B6124E577003A3E0697808B3
:104DF30070191207EFEEF50A780A1207F37C827D29
:104E03000479009004B6124E43801A1207EFEEF5B0
:104E13000A780A1207F37C827D0479009004B612A3
:104E23004786120DBF740312081DAA08AB0912119D
:104E3300F7120BBB022D691211F18A088B09EA22C2
:104E430012478A120DC5228E828F83A3A3A3A3A325
:104E5300A3A3A3A3124E90900461E06822C082C072
:104E63008380128A828B83A3A3124E8C9004D11267
:104E730041E11211F79004D112356A7001EB70E32E
:104E8300024060F582EF122C90124E9022E0024B0A
:104E9300D374F612035690046E123A439004DC1254
:104EA3004EFD1241E17ADC7B0479501218F3900431
:104EB300DC1223E3FAEFFB120E679004DC123A4391
:104EC300900F0EE07002A3E0602D7A067B001211B2
:104ED30085EA7001EB602074D58A828B83F0E4A3AA
:104EE300A3F074018A828B83123F42124D7C900F90
:104EF3000E1243E7121A9C0243BF124F0122E0F83D
:104F0300A3E0F990046E22C082C0839004DE74F59E
:104F1300F0A3740DF09004E074EFF0A3740DF0901F
:104F230004E2740DF0A3740EF0024060C082C083EB
:104F3300900461E064FE7004A3E064FF600E9004DB
:104F43005BE0A2E15006120E4F120DFB120DF502AB
:104F5300406074F61203569004AFE0602812117F8C
:104F63008A08A8089004AFE0FA75F0E8A4CAACF088
:104F730075F003A42CFB747F582AFCE43BFD7A00F4
:104F83007B011220430243BF74F012035674FE12D6
:104F930008AF750F00851082851183E4F0A3F0122A
:104FA3000B137A047900120AEFEAFE7A02790112EE
:104FB300516C7A03790312516C120E2BEAF50E2E03
:104FC300FF8E0AEA250AF8E43400F9E87001E97073
:104FD300030250CC8F0875090074027808120988FF
:104FE300AA08AB09123F497002A3E070030250CA3A
:104FF3008F0875090074027808120988AC08AD0996
:1050030079FF851082851183E0FA12116D7508000E
:105013008056A908120B0D8A0C8B0DEA7001EB6008
:10502300458A828B83A3A3A3A3E060046404703640
:10503300050F8A828B83A3A3A3A3A3A3A3A3A3A3E1
:10504300E0F9120E5B851082851183120653EFFD82
:10505300850C82850D83A3A3A3A3A3A3A3A3A3E08A
:1050630012517F12081D050885080A901E36E49325
:10507300F8740193F9C3E50A98E4995006E50FC360
:105083009E408F750800E508C3950E503CAA087B27
:1050930000120E318A0C8B0DEA7001EB602585102E
:1050A30082851183120653EA240EF582EB12517B9B
:1050B300FEEA240F1236CC120E5BEFFDEE12517F87
:1050C30012081D050880BF7F0075096A900459E026
:1050D300600CF9120A8FE9FA745CC39AF50975F04A
:1050E30003E50984F50A851082851183E0F50EA393
:1050F300E0F50F750B00E5096006750B20750900D7
:10510300E50AC39F5004AE0A8008EFFEE50BD2E622
:10511300F50BAC0EAD0FAA0BEEF9120E07E9F50C69
:10512300E50BA2E6401F1E750800800EE50E240461
:10513300F50EE50F3400F50F0508E508C39E40ECB6
:10514300EECFC39FFFE97006E50BA2E650A58510DD
:1051530082851183E07002A3E060098510828511C6
:105163008312329BA90C024AFA120AEFEACEC39EBB
:10517300FE22EE2411F582EF1236C622FC850C8244
:10518300850D8312478A120E0174022274F21203F0
:1051930056EAFEEBFF8908740E120A6D12478675F4
:1051A3000A00750B00750900800E8A0A8B0BEA242E
:1051B30004FAEB3400FB0509E509C39D50218A82FB
:1051C3008B83E064FF7004A3E064FF70158A828B15
:1051D30083124D80EC8A828B83125275E508F002AC
:1051E3002036E50A7002E50B600E850A82850B8383
:1051F300C3E09EA3E09F50B28A828B83124E8CC37E
:10520300EE98EF9950A4EAF8EBF988828983E06479
:10521300FF7004A3E064FF6010E82404F8E934009D
:10522300F90509E509C39D40E1880A890BE824FCD7
:10523300F8E934FFF988828983E0F50CA3E0F50DE2
:10524300850A82850B83E50CF0A3E50DF08882893E
:1052530083125269123CB1125269A3F0C3EA98EB6C
:105263009940C60251D0A3A3E0850A82850B83A38C
:10527300A322A312527A22A3F08A82022E4074F34D
:1052830012035674FD1208AF89088A09ECFEEDFF7C
:10529300750C0175F003E9A42402C0E07401120A3D
:1052A3006DD0E012533A7001EB607C1249E712268D
:1052B3008A12533488828983F0741F55084509A3E1
:1052C300F0125484750900803D8E828F83E08882BA
:1052D3008983F0A3A882A9838E828F831244658E6B
:1052E300828F83A3A3E05407C4C0E08E828F83A37D
:1052F300A3A3E05407FCD0E04C124467EE2404FE61
:10530300EF3400FF0509E509C3950840BC8A828B89
:1053130083A3A374FC12447CEA2413F582EB1244A6
:1053230061120BA3E9F50CA90C740312081D0241C9
:1053330084124E9074082212533FEA2212497412C7
:105343000D9B2274F11203568A0A8B0B7508007A9F
:10535300FE7BFF7CFE7DFFE50A241DF582E50B1233
:105363004E8988828983A3E0F509741F5509F50CDA
:10537300125484E50C600B88828983E0FEA3E0FB72
:10538300EEFA750D00803088828983E0FCA3E0FF8C
:10539300ECFEE824020808E912549A5407F50EA318
:1053A300A882A983EFFD900461E06E7003A3E06F10
:1053B3007003850E08050DE50DC3950C40C9E5087E
:1053C300700BA909120E13E9700302548112548E53
:1053D3001254A88A0C8B0DA80CA90DE87001E96082
:1053E3000EE488828983125851E508F00254817CC7
:1053F300FF7DFF12548E12268A124786120E1F8AD1
:105403000C8B0DAE0CAF0DEE7001EF7033125965BE
:105413007001EF60697C177D00790012116D1254E1
:105423008E12268A1254B21241E190046E1254C0B5
:10543300A31241DFEE240F12597AEE240E12445EBA
:10544300EE240E122687E508F0EE240C12383BEE0C
:105453002402FAEF3400FB120ABFE97021850A82A5
:10546300850B83A3A3A3A3A3A3A3A3E06010E50ACF
:105473002415F582E50B1223E02402122C45023297
:1054830083E824020808E93400F922E50A240BF52D
:1054930082E50B22F8E50912549E221254A222340B
:1054A30000F90232A9122C9012478A120AFB221227
:1054B30054B622E0F8A3E0F98E828F83221254B609
:1054C30002585AC082C08374FE6A700374FF6B7003
:1054D3000479018034746059646060F5E9A2E55091
:1054E3000F900461124E8CC3EC98ED99401980E142
:1054F300A2E69004615008C3E09AA3E09B80EDC349
:10550300E09AA3E09B50DA790002406074F712033B
:10551300567E00800412552A0E901E3CE493FAEE48
:10552300C39A40F1023676EE75F017A424FDFAE52E
:10553300F03413FB120E372274F7120356780079F6
:10554300008003125624901E3CE493FEC3E89EE9B8
:1055530094005064E8FEE9FFEE75F017A4FE85F0B1
:105563000875F017EFA425081258E3E06A7003A347
:10557300E06B70CFE8FEE9FFEE75F017A4FE75F05F
:1055830017EFA42508FFEE2407F582EF3414F58303
:10559300E06C7003A3E06D600A74FF6C700374FF2A
:1055A3006D70A0E875F017A4F8AAF075F017E9A4D8
:1055B3002AF9E81256BB80047A007B00023676741F
:1055C300F61203567CFF7DFF7AFE7BFF120E1FEA65
:1055D3007001EB704978007900803EE8FCE9FDEC4E
:1055E30075F017A4FCAEF075F017EDA42EFDEC24B6
:1055F3000CF582ED3414F583E0701BE8FAE9FBEA5D
:1056030075F017A4FAACF075F017EBA42CFBEA24A1
:10561300FDFAEB3413FB12562412566F40BD0243BE
:10562300BFE8240102548874F71203567A007B0002
:1056330078007900802EE8FCE9FDEC75F017A4FCF6
:10564300AEF075F017EDA42EFDEC125864ED125870
:10565300377004A3E064FF6008EA24010AEB340016
:10566300FB12562412566F40CD023676901E3CE450
:1056730093FCC3E89CE994002274F61203567E005F
:105683007D0080020E0D901E3CE493FCEDC39C5004
:105693001CED12582F7004A3E064FF60E88E08EA43
:1056A30065087001EB70DDED1256B780047A007B5C
:1056B300000243BF75F017A424FDFAE93413FB225B
:1056C30074F7120356EAFEEBFFEE7001EF600E1261
:1056D30056E312447A8E828F83A312447102367684
:1056E3007C177D00790012116D0254BB74F712030D
:1056F30056EAFEEBFF7508008018A808E875F01756
:10570300A4A9F01259EE7003A3E06F60031259F4D9
:105713000508901E3CE493FAE508C39A40DC023680
:105723007674F6120356120E1F8A088B09A808A96D
:1057330009E87001E9600AE8240DFAE93400FB8006
:10574300047A007B000243BF74F4120356EAFEEBB3
:10575300FF8C0A8D0B7508007509008036E5097505
:10576300F017A424FFFAE5F03413FB120ABFE96033
:1057730020A809125A327003A3E06F700375080A58
:10578300AC0AAD0BE875F017A412495F6003430838
:10579300A00509901E3CE493FAE509C39A5004E579
:1057A3000860BA0223C574F61203567E008024EE05
:1057B300F9120B0DEAF8EBF9EA7001EB6014E82437
:1057C3000712583F500CE488828983A3A3A312587D
:1057D30051F00E8E08901E36E493F8740193F9C3CA
:1057E300E50898E49940C87E00803212582E700470
:1057F300A3E064FF6026EE75F017A424FDF8E934F6
:1058030013F9E8240C12583F5012E8240FF582E9EB
:1058130012383EE8240EF582E912383E0E901E3C03
:10582300E493FAEEC39A40C30243BFEE12585EE913
:10583300125837223413F583E064FE22F582E9120D
:1058430036C6FA74012AF09004B0E0C39A22A3A3E7
:10585300A3A3A3123CAFA3A302341E75F017A4A9FC
:10586300F024FDF58222901E3CE493FAC3E89AE902
:10587300940022901E36E493FA740193FBC3E89AD2
:10588300E99B2274F41203568A088B098C0A8D0B48
:105893007E007F008008EE24010EEF3400FF901E8F
:1058A3003CE493F8C3EE98EF94005031AC0AAD0B8F
:1058B300EEF8EFF9E875F017A4F8AAF075F017E918
:1058C300A42AF9E812495F60CDEE75F017A4FEAA89
:1058D300F075F017EFA42A1258E3124C0A022D694F
:1058E300FFEE125864EF3413F58322E9FA7907C304
:1058F300940D400479018019EAC3940740047903A5
:10590300800FEAC39403400419198005EA700279F1
:10591300000207CF74F01203568A0E8B0F8C0A8D88
:105923000B89081259657001EF60341256E3E50ED6
:10593300F0A3E50F125972A3A3A3A3E50AF0A3E50D
:105943000BF0E508600AEE240F122687E5088008AD
:10595300EE240F1226877401F0EE240E12597A02F8
:105963004AFF120E258A0C8B0DAE0CAF0DEE2212E0
:10597300597622F002341A12455EEE240D122C8D54
:105983007402F02274F51203568A088B09ECFEEDBB
:10599300FF750A008014E875F017A41259EE70031E
:1059A300A3E06F60031259F4050A901E3CE493FAD6
:1059B300E50AC39A5024A80AE875F017A4A9F012BF
:1059C30059E0E065087004A3E0650970C9E875F063
:1059D30017A41259E0124D8080CE0234B71259E455
:1059E300222407F582E93414F583221259E4E06E88
:1059F30022E81256B7120E372274F7120356EAFE44
:105A0300EBFF7508008019A808125A327003A3E04F
:105A13006F700BE8125A3E7005E50812552B050806
:105A2300901E3CE493FAE508C39A40DB023676E81D
:105A330012585EE93413F583E06E2275F017A4243F
:105A4300FFFAE93413FB120ABFE922C082C0839034
:105A530004E47479F0A3740EF09004E6747FF0A369
:105A6300740EF09004E87485F0A3740EF0024060A5
:105A730074F4120356EAFEEBFF122FB170358E82D7
:105A83008F83A3A3A3A3A3A3A3A3A3120653900447
:105A9300401243E77808120A2EAA08AB09AC0AADF4
:105AA3000B8E828F83A3E0F9120C09740212081D76
:105AB300120BBB022D69C082C0839004B8125B6ACB
:105AC300F09004B8E07002A3E070057901120DCBE9
:105AD30002406074F612035674FC1208AFEA2408FD
:105AE300F8EB122123125B6A1232A87002A3E09032
:105AF30004B8700BE4F0A3F07901120DCB8063C3FB
:105B0300E09415A3E0940040597900120DCB8A0864
:105B13008B09AC08AD09ECF8EDF9E875F064A4F86D
